{
  "contractName": "ImageRecordChain",
  "abi": [
    {
      "inputs": [],
      "stateMutability": "nonpayable",
      "type": "constructor"
    },
    {
      "anonymous": false,
      "inputs": [
        {
          "indexed": true,
          "internalType": "address",
          "name": "patientAddress",
          "type": "address"
        },
        {
          "indexed": false,
          "internalType": "string",
          "name": "ipfsHash",
          "type": "string"
        }
      ],
      "name": "IPFSHashStored",
      "type": "event"
    },
    {
      "inputs": [
        {
          "internalType": "address",
          "name": "",
          "type": "address"
        },
        {
          "internalType": "uint256",
          "name": "",
          "type": "uint256"
        }
      ],
      "name": "patientRecords",
      "outputs": [
        {
          "internalType": "string",
          "name": "",
          "type": "string"
        }
      ],
      "stateMutability": "view",
      "type": "function",
      "constant": true
    },
    {
      "inputs": [
        {
          "internalType": "address",
          "name": "",
          "type": "address"
        }
      ],
      "name": "recordCount",
      "outputs": [
        {
          "internalType": "uint256",
          "name": "",
          "type": "uint256"
        }
      ],
      "stateMutability": "view",
      "type": "function",
      "constant": true
    },
    {
      "inputs": [
        {
          "internalType": "address",
          "name": "_patientAddress",
          "type": "address"
        },
        {
          "internalType": "string",
          "name": "_ipfsHash",
          "type": "string"
        }
      ],
      "name": "storeIPFSHash",
      "outputs": [],
      "stateMutability": "nonpayable",
      "type": "function"
    },
    {
      "inputs": [
        {
          "internalType": "address",
          "name": "_patientAddress",
          "type": "address"
        }
      ],
      "name": "getIPFSHashes",
      "outputs": [
        {
          "internalType": "string[]",
          "name": "",
          "type": "string[]"
        }
      ],
      "stateMutability": "view",
      "type": "function",
      "constant": true
    },
    {
      "inputs": [
        {
          "internalType": "address",
          "name": "_patientAddress",
          "type": "address"
        }
      ],
      "name": "getRecordCount",
      "outputs": [
        {
          "internalType": "uint256",
          "name": "",
          "type": "uint256"
        }
      ],
      "stateMutability": "view",
      "type": "function",
      "constant": true
    }
  ],
  "bytecode": "0x608060405234801561001057600080fd5b506106f3806100206000396000f3fe608060405234801561001057600080fd5b50600436106100575760003560e01c8063582143081461005c57806394f0df6114610098578063b744e264146100b8578063ba63245d146100cd578063ca8f2c08146100ed575b600080fd5b61008561006a36600461036e565b6001600160a01b031660009081526001602052604090205490565b6040519081526020015b60405180910390f35b6100ab6100a6366004610390565b61010d565b60405161008f9190610400565b6100cb6100c6366004610429565b6101c6565b005b6100856100db36600461036e565b60016020526000908152604090205481565b6101006100fb36600461036e565b610265565b60405161008f91906104eb565b6000602052816000526040600020818154811061012957600080fd5b906000526020600020016000915091505080546101459061054d565b80601f01602080910402602001604051908101604052809291908181526020018280546101719061054d565b80156101be5780601f10610193576101008083540402835291602001916101be565b820191906000526020600020905b8154815290600101906020018083116101a157829003601f168201915b505050505081565b6001600160a01b038216600090815260208181526040822080546001810182559083529120016101f682826105d6565b506001600160a01b038216600090815260016020526040812080549161021b83610696565b9190505550816001600160a01b03167fec5a2650655a2555ec6197f8b0243b7b559e8e6e5bc582d76487c23dbb769b20826040516102599190610400565b60405180910390a25050565b6001600160a01b038116600090815260208181526040808320805482518185028101850190935280835260609492939192909184015b828210156103475783829060005260206000200180546102ba9061054d565b80601f01602080910402602001604051908101604052809291908181526020018280546102e69061054d565b80156103335780601f1061030857610100808354040283529160200191610333565b820191906000526020600020905b81548152906001019060200180831161031657829003601f168201915b50505050508152602001906001019061029b565b505050509050919050565b80356001600160a01b038116811461036957600080fd5b919050565b60006020828403121561038057600080fd5b61038982610352565b9392505050565b600080604083850312156103a357600080fd5b6103ac83610352565b946020939093013593505050565b6000815180845260005b818110156103e0576020818501810151868301820152016103c4565b506000602082860101526020601f19601f83011685010191505092915050565b60208152600061038960208301846103ba565b634e487b7160e01b600052604160045260246000fd5b6000806040838503121561043c57600080fd5b61044583610352565b9150602083013567ffffffffffffffff8082111561046257600080fd5b818501915085601f83011261047657600080fd5b81358181111561048857610488610413565b604051601f8201601f19908116603f011681019083821181831017156104b0576104b0610413565b816040528281528860208487010111156104c957600080fd5b8260208601602083013760006020848301015280955050505050509250929050565b6000602080830181845280855180835260408601915060408160051b870101925083870160005b8281101561054057603f1988860301845261052e8583516103ba565b94509285019290850190600101610512565b5092979650505050505050565b600181811c9082168061056157607f821691505b60208210810361058157634e487b7160e01b600052602260045260246000fd5b50919050565b601f8211156105d157600081815260208120601f850160051c810160208610156105ae5750805b601f850160051c820191505b818110156105cd578281556001016105ba565b5050505b505050565b815167ffffffffffffffff8111156105f0576105f0610413565b610604816105fe845461054d565b84610587565b602080601f83116001811461063957600084156106215750858301515b600019600386901b1c1916600185901b1785556105cd565b600085815260208120601f198616915b8281101561066857888601518255948401946001909101908401610649565b50858210156106865787850151600019600388901b60f8161c191681555b5050505050600190811b01905550565b6000600182016106b657634e487b7160e01b600052601160045260246000fd5b506001019056fea2646970667358221220543c99e338869d78933972d9b38d2f899c62a9275a5814708397799e33c8f86d64736f6c63430008110033",
  "immutableReferences": {},
  "source": "// SPDX-License-Identifier: MIT\r\npragma solidity ^0.8.0;\r\n\r\ncontract ImageRecordChain {\r\n    // Mapping of patient wallet address to list of IPFS hashes\r\n    mapping(address => string[]) public patientRecords;\r\n    // Mapping to track the total number of records per patient\r\n    mapping(address => uint256) public recordCount;\r\n\r\n    event IPFSHashStored(address indexed patientAddress, string ipfsHash);\r\n\r\n    constructor() {}\r\n\r\n    // Store IPFS hash associated with a patient address\r\n    function storeIPFSHash(address _patientAddress, string memory _ipfsHash) public {\r\n        patientRecords[_patientAddress].push(_ipfsHash);\r\n        recordCount[_patientAddress]++;\r\n        emit IPFSHashStored(_patientAddress, _ipfsHash);\r\n    }\r\n\r\n    // Get all IPFS hashes for a patient\r\n    function getIPFSHashes(address _patientAddress) public view returns (string[] memory) {\r\n        return patientRecords[_patientAddress];\r\n    }\r\n\r\n    // Get the number of records for a patient\r\n    function getRecordCount(address _patientAddress) public view returns (uint256) {\r\n        return recordCount[_patientAddress];\r\n    }\r\n}",
  "sourcePath": "D:\\FYP\\Phase_2\\code\\fyp_final\\blockchain\\contracts\\ImageRecordChain.sol",
  "compiler": {
    "name": "solc",
    "version": "0.8.17+commit.8df45f5f.Emscripten.clang"
  },
  "schemaVersion": "3.4.16",
  "updatedAt": "2025-04-18T12:43:25.869Z",
  "networkType": "ethereum",
  "devdoc": {
    "kind": "dev",
    "methods": {},
    "version": 1
  },
  "userdoc": {
    "kind": "user",
    "methods": {},
    "version": 1
  }
}