{
  "contractName": "UserCredentialChain",
  "abi": [
    {
      "anonymous": false,
      "inputs": [
        {
          "indexed": true,
          "internalType": "address",
          "name": "user",
          "type": "address"
        },
        {
          "indexed": false,
          "internalType": "bytes32",
          "name": "recordHash",
          "type": "bytes32"
        }
      ],
      "name": "CredentialStored",
      "type": "event"
    },
    {
      "inputs": [
        {
          "internalType": "address",
          "name": "_userAddress",
          "type": "address"
        },
        {
          "internalType": "string",
          "name": "_username",
          "type": "string"
        },
        {
          "internalType": "string",
          "name": "_role",
          "type": "string"
        },
        {
          "internalType": "bytes",
          "name": "_permissions",
          "type": "bytes"
        }
      ],
      "name": "storeCredential",
      "outputs": [],
      "stateMutability": "nonpayable",
      "type": "function"
    },
    {
      "inputs": [
        {
          "internalType": "address",
          "name": "_userAddress",
          "type": "address"
        },
        {
          "internalType": "string",
          "name": "_username",
          "type": "string"
        },
        {
          "internalType": "string",
          "name": "_role",
          "type": "string"
        },
        {
          "internalType": "bytes",
          "name": "_permissions",
          "type": "bytes"
        }
      ],
      "name": "verifyCredential",
      "outputs": [
        {
          "internalType": "bool",
          "name": "",
          "type": "bool"
        }
      ],
      "stateMutability": "view",
      "type": "function",
      "constant": true
    },
    {
      "inputs": [
        {
          "internalType": "address",
          "name": "_user",
          "type": "address"
        }
      ],
      "name": "getUserRecord",
      "outputs": [
        {
          "internalType": "string",
          "name": "username",
          "type": "string"
        },
        {
          "internalType": "string",
          "name": "role",
          "type": "string"
        },
        {
          "internalType": "bytes",
          "name": "permissions",
          "type": "bytes"
        },
        {
          "internalType": "bytes32",
          "name": "recordHash",
          "type": "bytes32"
        }
      ],
      "stateMutability": "view",
      "type": "function",
      "constant": true
    }
  ],
  "bytecode": "0x608060405234801561001057600080fd5b50610802806100206000396000f3fe608060405234801561001057600080fd5b50600436106100415760003560e01c80635d941f301461004657806367e2efc61461005b578063a7a1ba6514610087575b600080fd5b6100596100543660046104dd565b6100aa565b005b61006e61006936600461058a565b61019f565b60405161007e94939291906105f5565b60405180910390f35b61009a6100953660046104dd565b6103b9565b604051901515815260200161007e565b60008383836040516020016100c193929190610640565b60408051601f198184030181528282528051602091820120608084018352878452838201879052838301869052606084018190526001600160a01b038916600090815291829052919020825191935090819061011d908261070c565b5060208201516001820190610132908261070c565b5060408201516002820190610147908261070c565b5060608201518160030155905050846001600160a01b03167ff5886096ff3f57a635c094cb7c273b862fc5951851b862adc4c26f4217f4c54f8260405161019091815260200190565b60405180910390a25050505050565b6060806060600080600080876001600160a01b03166001600160a01b031681526020019081526020016000206040518060800160405290816000820180546101e690610683565b80601f016020809104026020016040519081016040528092919081815260200182805461021290610683565b801561025f5780601f106102345761010080835404028352916020019161025f565b820191906000526020600020905b81548152906001019060200180831161024257829003601f168201915b5050505050815260200160018201805461027890610683565b80601f01602080910402602001604051908101604052809291908181526020018280546102a490610683565b80156102f15780601f106102c6576101008083540402835291602001916102f1565b820191906000526020600020905b8154815290600101906020018083116102d457829003601f168201915b5050505050815260200160028201805461030a90610683565b80601f016020809104026020016040519081016040528092919081815260200182805461033690610683565b80156103835780601f1061035857610100808354040283529160200191610383565b820191906000526020600020905b81548152906001019060200180831161036657829003601f168201915b50505091835250506003919091015460209182015281519082015160408301516060909301519199909850919650945092505050565b6000808484846040516020016103d193929190610640565b60408051601f1981840301815291815281516020928301206001600160a01b03891660009081529283905291206003015414915050949350505050565b80356001600160a01b038116811461042557600080fd5b919050565b634e487b7160e01b600052604160045260246000fd5b600067ffffffffffffffff8084111561045b5761045b61042a565b604051601f8501601f19908116603f011681019082821181831017156104835761048361042a565b8160405280935085815286868601111561049c57600080fd5b858560208301376000602087830101525050509392505050565b600082601f8301126104c757600080fd5b6104d683833560208501610440565b9392505050565b600080600080608085870312156104f357600080fd5b6104fc8561040e565b9350602085013567ffffffffffffffff8082111561051957600080fd5b610525888389016104b6565b9450604087013591508082111561053b57600080fd5b610547888389016104b6565b9350606087013591508082111561055d57600080fd5b508501601f8101871361056f57600080fd5b61057e87823560208401610440565b91505092959194509250565b60006020828403121561059c57600080fd5b6104d68261040e565b60005b838110156105c05781810151838201526020016105a8565b50506000910152565b600081518084526105e18160208601602086016105a5565b601f01601f19169290920160200192915050565b60808152600061060860808301876105c9565b828103602084015261061a81876105c9565b9050828103604084015261062e81866105c9565b91505082606083015295945050505050565b600084516106528184602089016105a5565b8451908301906106668183602089016105a5565b84519101906106798183602088016105a5565b0195945050505050565b600181811c9082168061069757607f821691505b6020821081036106b757634e487b7160e01b600052602260045260246000fd5b50919050565b601f82111561070757600081815260208120601f850160051c810160208610156106e45750805b601f850160051c820191505b81811015610703578281556001016106f0565b5050505b505050565b815167ffffffffffffffff8111156107265761072661042a565b61073a816107348454610683565b846106bd565b602080601f83116001811461076f57600084156107575750858301515b600019600386901b1c1916600185901b178555610703565b600085815260208120601f198616915b8281101561079e5788860151825594840194600190910190840161077f565b50858210156107bc5787850151600019600388901b60f8161c191681555b5050505050600190811b0190555056fea264697066735822122076a08dab746551c106089e16c1dd6de487aec5c3dab13aa73f11726d2a61844764736f6c63430008110033",
  "immutableReferences": {},
  "source": "// SPDX-License-Identifier: MIT\r\npragma solidity ^0.8.0;\r\n\r\ncontract UserCredentialChain {\r\n    // Struct to hold user record details\r\n    struct UserRecord {\r\n        string username;\r\n        string role;\r\n        bytes permissions;  // Using bytes for flexibility (could encode JSON)\r\n        bytes32 recordHash; // Hash of the full record\r\n    }\r\n\r\n    // Mapping of wallet address to user record\r\n    mapping(address => UserRecord) private userRecords;\r\n\r\n    event CredentialStored(address indexed user, bytes32 recordHash);\r\n\r\n    // Modified to accept user address as parameter\r\n    function storeCredential(\r\n        address _userAddress,  // Added user address parameter\r\n        string memory _username,\r\n        string memory _role,\r\n        bytes memory _permissions\r\n    ) public {\r\n        bytes32 recordHash = keccak256(\r\n            abi.encodePacked(_username, _role, _permissions)\r\n        );\r\n        \r\n        userRecords[_userAddress] = UserRecord({\r\n            username: _username,\r\n            role: _role,\r\n            permissions: _permissions,\r\n            recordHash: recordHash\r\n        });\r\n        \r\n        emit CredentialStored(_userAddress, recordHash);\r\n    }\r\n\r\n    // Verify credentials for any address (not just msg.sender)\r\n    function verifyCredential(\r\n        address _userAddress,  // Added user address parameter\r\n        string memory _username,\r\n        string memory _role,\r\n        bytes memory _permissions\r\n    ) public view returns (bool) {\r\n        bytes32 providedHash = keccak256(\r\n            abi.encodePacked(_username, _role, _permissions)\r\n        );\r\n        return userRecords[_userAddress].recordHash == providedHash;\r\n    }\r\n\r\n    // Get user record (unchanged)\r\n    function getUserRecord(address _user) public view returns (\r\n        string memory username,\r\n        string memory role,\r\n        bytes memory permissions,\r\n        bytes32 recordHash\r\n    ) {\r\n        UserRecord memory record = userRecords[_user];\r\n        return (record.username, record.role, record.permissions, record.recordHash);\r\n    }\r\n}",
  "sourcePath": "D:\\FYP\\Phase_2\\code\\fyp_final\\blockchain\\contracts\\UserCredentialChain.sol",
  "compiler": {
    "name": "solc",
    "version": "0.8.17+commit.8df45f5f.Emscripten.clang"
  },
  "schemaVersion": "3.4.16",
  "updatedAt": "2025-04-18T12:43:25.874Z",
  "networkType": "ethereum",
  "devdoc": {
    "kind": "dev",
    "methods": {},
    "version": 1
  },
  "userdoc": {
    "kind": "user",
    "methods": {},
    "version": 1
  }
}